:020000040800F2
:10000000C0C90020750300087D0300087F030008B5
:100010008103000883030008850300080000000036
:10002000000000000000000000000000AD02000819
:100030008903000800000000250300086103000890
:100040008F0300088F0300088F0300088F03000848
:100050008F0300088F0300088F030008050E0008B7
:100060008F0300088F0300088F030008850C000829
:10007000A50C0008C50C0008E50C0008050D0008DB
:10008000250D0008450D00088F0300088F030008A8
:100090008F0300088F0300088F0300088F030008F8
:1000A0008F0300088F0300088F0300088F030008E8
:1000B0008F0300088F0300088F0300088F030008D8
:1000C0008F0300088F0300088F0300088F030008C8
:1000D0008F030008914D0008354F00088F0300087A
:1000E0008F0300088F0300088F0300088F030008A8
:1000F0008F0300088F0300088F0300088F03000898
:100100008F0300088F0300088F0300088F03000887
:100110008F030008B54C00088F0300088F03000808
:10012000650D0008850D0008A90D0008C90D00081F
:1001300000F002F800F065F80AA090E8000C824494
:100140008344AAF10107DA4501D100F05AF8AFF271
:10015000090EBAE80F0013F0010F18BFFB1A43F0A5
:1001600001031847F8240100182501000A444FF044
:10017000000C10F8013B13F0070408BF10F8014B06
:100180001D1108BF10F8015B641E05D010F8016B4B
:10019000641E01F8016BF9D113F0080F1EBF10F8AF
:1001A000014BAD1C0C1B09D16D1E58BF01F801CBD2
:1001B000FAD505E014F8016B01F8016B6D1EF9D555
:1001C0009142D6D37047000000230024002500266A
:1001D000103A28BF78C1FBD8520728BF30C148BFAA
:1001E0000B607047642900F0DF81782900F01882E5
:1001F000732900F0D684002070471FB51FBD10B5CD
:1002000010BD00F015FD1146FFF7F7FF0FB400F029
:100210000BF80FBC0CF0E1FE00F0CAFA03B4FFF7D4
:10022000EEFF03BC00F0FEFC04B00CF05DFF0448E0
:1002300000210DF059F80CF069FF00F0B9FA000048
:10024000A8FE000880F309887047EFF30980704723
:10025000684680F3098804480078C00714BF02206C
:10026000032080F31488704768FE0008DFF818C088
:10027000EFF305831B0618BF6047EFF31483DB071A
:1002800008BF604700DF704713D40008DFF818C0CC
:10029000EFF305831B0618BF6047EFF31483DB07FA
:1002A00008BF604700DF7047F9D50008EFF3098009
:1002B000816911F8021CF1B990E80F10E047EFF3E3
:1002C000098C8CE80700144B93E8060091420FD08C
:1002D00039B12CE9F00FC1F828C00CB40DF07CFD49
:1002E0000CBC1A60D2F828C0BCE8F00F8CF3098867
:1002F0006FF0020E704710B5084A1268914209D893
:10030000074C54F8214090E80F10A047EFF3098CF8
:100310008CE80F0010BD0000F00100207C0C0008EC
:100320007C0C00080DF02AFC0C4B93E8060091426F
:1003300010D0EFF3098C2CE9F00FC1F828C00CB4F1
:100340000DF04AFD0CBC1A60D2F828C0BCE8F00FD2
:100350008CF309886FF0020E70470000F001002056
:100360000DF002FEE0E700000DF052F80DF0FCFD8C
:10037000DAE700000948804709480047FEE7FEE742
:10038000FEE7FEE7FEE7FEE7FEE7FEE7FEE7FEE745
:1003900004480549054A064B70470000CD4B00084C
:1003A00031010008C0C30020C0C90020C0C5002022
:1003B000C0C500200048704760C3002053EA020C0B
:1003C00000F069802DE9F04B4FF00006002B1FBFB5
:1003D000B3FA83F503FA05F424FA05F65E4012BF7A
:1003E0001643B2FA82F502FA05F4C5F120051EBFE4
:1003F00022FA05FC44EA0C04203556EA044C4FEA84
:10040000144418BF641C4FF000084FF000099042DC
:1004100071EB030C39D3002919BFB1FA81F701FA46
:1004200007F6B0FA80F700FA07F6C7F120071EBFFB
:1004300020FA07FC46EA0C062037B6FBF4FCA7EBD3
:100440000507103F07F01F0BCBF120060CFA0BFB42
:100450002CFA06F644BFB3460026202FA4BF5E4602
:100460004FF0000B5BEA060C08BF4FF0010B19EBD5
:100470000B09ABFB027C48EB0608C01B06FB02CC59
:100480000BFB03CC71EB0C01C1E70B460246414666
:100490004846BDE8F08B13B54FF000004FF0000167
:1004A000AFF30080BDE81C40704700000FB41CB5DE
:1004B000074B06AA7B4469460090059800F03FFB75
:1004C0000020694600F04EFB1CBC5DF814FB0000E8
:1004D000AD0600000FB41CB50C0007AA009001D0B7
:1004E0002044401E074B7B4469460190069800F06B
:1004F00026FB002C03D06946002000F033FB1CBC17
:100500005DF814FB8506000070B504468569006837
:10051000C10601D5302600E02026C00707D070BDF7
:10052000D4E9012130469047206A401C20626D1EAC
:10053000F6D570BD70B5044685690078C00707D14F
:1005400070BDD4E9012120209047206A401C206220
:100550006D1EF6D570BD70B50C460546012A05D056
:100560002878800600D5EA69002302E0012305E02F
:100570005B1C934202D2E05C0028F9D1A869E6181E
:10058000C01AA861286A184428622846FFF7BCFFF1
:1005900004E0D5E9012114F8010B9047B442F8D3E7
:1005A0002846FFF7C7FF70BD2DE9F041064600243D
:1005B00010687529314616A510D0AFF300800028C9
:1005C00002DA404213A507E031688A0701D512A577
:1005D00002E0490704D511A5012401E0AFF3008032
:1005E00000210A2206F1240709E0B0FBF2FCB0FB6F
:1005F000F2F302FB1C00303078541846491C0028E6
:10060000F3D123462A463046BDE8F04100F038BA1F
:10061000000000002D0000002B0000002000000062
:1006200070B504460D4621461068AFF3008021885E
:10063000090502D50F4A7A4402E00E4A7A440E3286
:10064000002104F1240305E000F00F060009965D87
:100650005E54491C0028F7D120780023000704D5F8
:10066000702D02D009B1022311322046BDE870403E
:1006700000F006BA6E1D01002DE9F05F89460446C0
:100680004FF0000ADFF824B1FB44C0F820A0204658
:10069000E168884700287DD0252806D0D4E90121CB
:1006A0009047206A401C2062F1E700255F46204603
:1006B000E16888472028064607DB312E05D2B819A5
:1006C00010F8200C08B10543F1E7A80701D525F083
:1006D0000405C4F81CA00027C4F818A02A2E09D0CD
:1006E00030460CF0CCF938B304EB8708303EC8F83C
:1006F000186019E059F8041B204604EB8702916149
:10070000E1688847012F064618D1E069002820DA01
:1007100025F020051DE0D8F8180000EB800006EB5E
:1007200040003038C8F818002046E168884706467F
:100730000CF0A5F90028EED1012F0AD02E2E08D1F9
:100740002046E16888477F1C0646022F45F02005B9
:10075000C4DBA069002803DA404245F00105A0612E
:10076000E80701D025F01005A6B1A6F1410019282F
:1007700002D8203645F400654A46314620462560B9
:100780004D46FFF72FFD60B1012807D0ED1D25F084
:10079000070000E007E000F1080978E705F1040927
:1007A00075E730467AE7206ABDE8F09F441D0100F6
:1007B00010B50446AFF300802046BDE81040FFF7B7
:1007C0002DBD40EA010310B59B070FD1042A0DD3BC
:1007D00010C808C9121F9C42F8D020BA19BA884222
:1007E00001D9012010BD4FF0FF3010BD1AB1D30761
:1007F00003D0521C07E0002010BD10F8013B11F897
:10080000014B1B1B07D110F8013B11F8014B1B1BBF
:1008100001D1921EF1D1184610BD10B5431C02E063
:1008200010F8011B71B18107FAD14FF0013202C8F3
:100830008C1A8C4314EAC211F9D0C01A0A0603D0EC
:10084000C01E10BDC01A10BD0A0401D0801E10BD0C
:100850000902FCD0401E10BD032A40F2308010F087
:10086000030C00F0158011F8013BBCF1020F62444B
:1008700098BF11F801CB00F8013B38BF11F8013BDC
:10088000A2F1040298BF00F801CB38BF00F8013B89
:1008900011F0030300F06B80083AC0F0088051F8B3
:1008A000043B083A51F804CBA0E80810F5E7121D04
:1008B0005CBF51F8043B40F8043BAFF30080D20723
:1008C00024BF11F8013B11F801CB48BF11F8012BEF
:1008D00024BF00F8013B00F801CB48BF00F8012B12
:1008E0007047431A28BF9A427FF6B6AF032A1044D6
:1008F000114440F2268010F0030F1EBF11F8013D95
:10090000521E00F8013D10F0030F7FF4F6AF11F016
:10091000030300F05D81083AC0F00B8051F8043DFC
:10092000083A51F804CD40F8043D40F804CDFFF7F3
:10093000F3BF121D5CBF51F8043D40F8043DAFF316
:100940000080D20724BF11F8013D11F801CD48BF46
:1009500011F8012C24BF00F8013D00F801CD48BF7B
:1009600000F8012C704701B5FFF776FF01BD10B507
:10097000203AC0F00B80B1E81850203AA0E8185097
:10098000B1E81850A0E81850BFF4F5AF5FEA027C58
:1009900024BFB1E81850A0E8185044BF18C918C0C7
:1009A000BDE810405FEA827C24BF51F8043B40F868
:1009B000043B08BF7047D20728BF31F8023B48BF4D
:1009C00011F8012B28BF20F8023B48BF00F8012B8B
:1009D000704701F0FF03114601B543EA032242EAE2
:1009E000024200F003F801BD4FF000020429C0F0FC
:1009F000128010F0030C00F01B80CCF1040CBCF151
:100A0000020F18BF00F8012BA8BF20F8022BA1EBA2
:100A10000C0100F00DB85FEAC17C24BF00F8012B87
:100A200000F8012B48BF00F8012B70474FF000027F
:100A300000B5134694469646203922BFA0E80C50D4
:100A4000A0E80C50B1F12001BFF4F7AF090728BFAF
:100A5000A0E80C5048BF0CC05DF804EB890028BF2B
:100A600040F8042B08BF704748BF20F8022B11F054
:100A7000804F18BF00F8012B7047704770477047D0
:100A80002DE9F0470D4699469246044600F12408A8
:100A90000168880604D5E06921F01001216000E0BA
:100AA0000120A84201DD471B00E00027A1697A1957
:100AB00002EB0900081AA0612078C00602D4204683
:100AC000FFF722FD002608E0D4E901211AF806000C
:100AD0009047206A401C761C20624E45F4DB20784B
:100AE000C0060AD52046FFF70FFD06E0D4E9012134
:100AF00030209047206A401C2062381EA7F1010771
:100B0000F4DC07E0D4E9012118F805009047206AD9
:100B1000401C2062281EA5F10105F3DC2046FFF7EA
:100B200009FD2078000602D50220BDE8F0870120EB
:100B3000FBE7000001694A1C02610878704700B5B4
:100B40008FB0CDE901310021059105497944CDE906
:100B5000031011466846FFF78FFD0FB000BD00007F
:100B6000E5FFFFFF0A6802F8010B0A607047D1E950
:100B700000239A4202D2531C0B601070704710B5CC
:100B8000436913B1AFF3008001E0FFF7E4FC0120FB
:100B900010BD127800F124010A7000224A7001226F
:100BA000EDE711684FF0FF32E9E7431A28BF9A4298
:100BB0007FF6DDAE104410F0030F11441EBF11F894
:100BC000013D521E00F8013D10F0030F7FF4F6AF17
:100BD000103AC0F00A8010B531E91850103A20E9F7
:100BE0001850BFF4F9AFBDE81040530724BF31E9F6
:100BF000081020E9081044BF51F8043D40F8043DB6
:100C000012F0030F08BF7047D20728BF31F8023D2A
:100C100048BF11F8012C28BF20F8023D48BF00F85A
:100C2000012C704701491820ABBEFEE726000200E8
:100C30007546FFF7BFFBAE4605006946534620F0F8
:100C40000700854618B020B5FFF7A2FBBDE820409D
:100C50004FF000064FF000074FF000084FF0000B78
:100C600021F00701AC46ACE8C009ACE8C009ACE82B
:100C7000C009ACE8C0098D4670477047000000000D
:100C80007047000010B50548006800F00F040348E5
:100C900044602046FFF7F4FF10BD00000000024052
:100CA0007047000010B505480068C0F30314200128
:100CB000024948602046FFF7F3FF10BD00000240E4
:100CC0007047000010B505480068C0F303242002F7
:100CD000024948602046FFF7F3FF10BD00000240C4
:100CE0007047000010B505480068C0F303342003C6
:100CF000024948602046FFF7F3FF10BD00000240A4
:100D00007047000010B505480068C0F30344200494
:100D1000024948602046FFF7F3FF10BD0000024083
:100D20007047000010B505480068C0F30354200563
:100D3000024948602046FFF7F3FF10BD0000024063
:100D40007047000010B505480068C0F30364200632
:100D5000024948602046FFF7F3FF10BD0000024043
:100D60007047000010B50548006800F00F04034804
:100D7000001D04602046FFF7F3FF10BD0004024091
:100D80007047000010B506480068C0F30314200146
:100D90000349091D08602046FFF7F2FF10BD00005F
:100DA000000402407047000010B506480068C0F318
:100DB000032420020349091D08602046FFF7F2FFC3
:100DC00010BD00000004024010B50C480068C0F3DC
:100DD000033434B120030949091D0860204600F09E
:100DE0000FF806480068C0F3034434B120040349F7
:100DF000091D0860204600F004F810BD0004024000
:100E00007047704710B50A200BF058FF064800687D
:100E100028B90648007840F04000044908700220D4
:100E200000F006F810BD000004012242860E0020EA
:100E30000149086070470000140401400021234963
:100E40008279002A3AD00A46126803689A430B4610
:100E50001A600A1D126803689A430B1D1A60027912
:100E600011440A6803681A430A60184A0832126873
:100E700003689A43154B08331A601A1D12680368F9
:100E80009A43124B0C331A604279102A0ED11A1F62
:100E9000126803681A430D4B08331A601A1D126852
:100EA00003681A43094B0C331A600DE00749427975
:100EB00011440A6803681A430A6005E00279114484
:100EC0000A6803689A430A60704700000004014002
:100ED00010B500241448006820F4706012490860BE
:100EE0000846006840F40060086001200F4908606F
:100EF0000F49C1F8800103200BF0E0FE0AE0601CFE
:100F0000C4B2FA2C03DD00F009FA012010BD022062
:100F10000BF0D4FE0548803800680028EFD1034963
:100F20000839086000BFF1E7001001408801224243
:100F30000000224200B585B00121102003F0AAFD77
:100F40000520ADF80C0010208DF80F0003208DF85F
:100F50000E0003A93E4800F079FB05213C4800F053
:100F600029FD0820ADF80C0010208DF80F0003209B
:100F70008DF80E0003A9364800F068FB08213448BC
:100F800000F018FD0220ADF80C0048208DF80F008D
:100F900003A92F4800F05AFB02212D4800F00AFD5A
:100FA0000121084603F076FD0121022000F0E2FA5B
:100FB0000220019000208DF808000C208DF8090017
:100FC00001208DF80A0001A8FFF738FF0220FFF783
:100FD0002FFF07208DF8000000208DF8010002206F
:100FE0008DF8020001208DF80300684603F01AFD19
:100FF00000201849086032200CF06AF801201649D8
:10100000C1F88C0164200CF063F801201149091F1C
:1010100008601149C1F880010A200CF059F800203D
:101020000490012204A900F0A3F9162004900122E3
:1010300004A9802000F09CF90C200490012204A94E
:10104000882000F095F90BF051FE05B000BD0000BE
:10105000001001408C0122420000224210B5002005
:10106000104908601048006820F470600E4908605C
:101070000846006840F44070086003200BF01EFE34
:1010800000200A49C1F8880102200BF017FE012058
:101090000449086002200BF011FE00200349C1F84A
:1010A000800110BD80012242001001400000224258
:1010B00010B50020104908601048006820F47060E6
:1010C0000E4908600846006840F44070086003203C
:1010D0000BF0F4FD01200A49C1F8880102200BF051
:1010E000EDFD01200449086002200BF0E7FD00201F
:1010F0000349C1F8800110BD800122420010014067
:10110000000022422DE9F04105460C46164600F04B
:10111000D9F8702000F056F9FFF7DAFEE8B200F0D7
:1011200051F9FFF7D5FE00F0CDF8712000F04AF933
:10113000FFF7CEFE002707E000F00EF804F8010BE1
:10114000FFF78CFF781CC7B2B742F5DBFFF7B0FFA3
:1011500000F0E4F8BDE8F08170B500241A4800689A
:1011600020F47060184908600846006840F4006088
:10117000086002200BF0A2FD012014490860022043
:101180000BF09CFD082517E0002010490839086085
:1011900002200BF093FD01200D49C1F8800160068B
:1011A000040E0A488038006808B1601CC4B20220EE
:1011B0000BF084FD681EC5B2002DE5DC012003495B
:1011C0000860204670BD00000010014088012242E6
:1011D000000022421CB50024002001900090012252
:1011E00001A90220FFF78EFF9DF8040000F00F0018
:1011F000002849D09DF8040000F00F01FF2088402E
:10120000C0432E49087000BF35E02C48007801210A
:10121000A140084068B32A4931F814000422694605
:10122000FFF770FF9DF801009DF8001001F00F011D
:1012300000EB01202149891C21F814009DF80300CE
:101240009DF8021001F00F0100EB01211B480C304A
:1012500020F814109DF8000000F0C000802808D08D
:10126000002116480C3020F814100A3820F8141009
:101270001CBD601CC4B2052CC7DB1048007840F0D0
:1012800080000E49087017E00C48007800F08000DC
:1012900030B10A48007820F08000084908700BE05F
:1012A0000648408805494880084680898881084664
:1012B000007800F0E000087000BFD9E7860E00203B
:1012C00038FE000810B51248006820F4706010491C
:1012D00008600846006840F44070086003200BF086
:1012E000EDFC01200B4908600B49C1F88001042086
:1012F0000BF0E4FC00200749086004200BF0DEFC42
:1013000000200549C1F8800102200BF0D7FC10BD78
:1013100000100140880122420000224210B511480D
:10132000006820F470600F4908600846006840F4C7
:101330004070086003200BF0C1FC01200A490860DE
:1013400004200BF0BBFC00200849C1F888010420F0
:101350000BF0B4FC012004490831086002200BF0B6
:10136000ADFC10BD0010014080012242000022426D
:101370002DE9F04105460E4617464FF00008FFF7ED
:10138000A1FF702000F01EF8FFF7A2FDE8B200F008
:1013900019F8FFF79DFD00240BE0305D00F012F816
:1013A000FFF796FD8046B8F1000F00D003E0601C07
:1013B000C4B2BC42F1DB00BFFFF7B0FF4046BDE85E
:1013C000F081000070B504461948006820F4706090
:1013D000174908600846006840F440700860002023
:1013E0001449086003200BF069FC08251CE004F098
:1013F000800020B101200F490831086003E000207F
:101400000C490831086001200A49086002200BF0ED
:1014100055FC00200849C1F8800102200BF04EFC69
:101420006006040E681EC5B2002DE0DC70BD000031
:101430000010014080012242000022422DE9F043C9
:101440000446C56887B090468946002001F07EFCBE
:10145000064625B1287910B146F0020001E026F0D9
:10146000020001F073FC2069012558B1D4E9021291
:101470008DE8260003956388228804684146484623
:10148000A0471EE0124F134B214638681B68427C70
:10149000E068984730B9E088012801D0002001E0D9
:1014A0003868806BA288E388A1680095CDE90410B4
:1014B000CDE902320195638822884146484602F010
:1014C000B9FA07B03046BDE8F04301F03FBC000078
:1014D000B0000020A000002018B5002844D0C0F3C0
:1014E0004211C0F30322214B9B6903F001032BB986
:1014F0001E4B9B6943F001031C4CA36100F4805315
:10150000A3B11B4BDB69009300F01F0301FA03F347
:10151000009C9C43009400F01F0302FA03F3009C1C
:1015200023430093124C009BE3611DE0104B5B686A
:10153000009300F01F0301FA03F3009C9C43009406
:1015400000F01F0302FA03F3009C234300930721DA
:101550000022009B23EA01630093009B43EA02639D
:101560000093034C009B636018BD00000010024014
:101570000000014030B500228B071C0F0F2303FA37
:1015800004F20B4B8C1053F824309343084C8D100D
:1015900044F8253023468C1053F824308C07240F50
:1015A00000FA04F42343024C8D1044F8253030BD7A
:1015B0000800014001461D48814204D11C48806951
:1015C000C0F3800070471B48814204D118488069ED
:1015D000C0F3C000F6E71848814204D1144880697E
:1015E000C0F30010EEE71548814204D1104880692D
:1015F000C0F34010E6E71248814204D10C488069EC
:10160000C0F38010DEE70F48814204D108488069AA
:10161000C0F3C010D6E70C48814204D10448806969
:10162000C0F30020CEE70020CCE700000008014016
:1016300000100240000C0140001001400014014065
:1016400000180140001C0140002001402DE9F0413C
:10165000024600250026002000230024002791F8E0
:1016600003C00CF00F0591F803C00CF0100CBCF196
:10167000000F03D091F802C04CEA050591F800C0B4
:10168000BCF1000F31D0146800202BE04FF0010CAA
:101690000CFA00F3B1F800C00CEA03069E4220D118
:1016A00083004FF00F0C0CFA03F7BC4305FA03FC60
:1016B0004CEA040491F803C0BCF1280F06D14FF0A6
:1016C000010C0CFA00FCC2F814C00AE091F803C047
:1016D000BCF1480F05D14FF0010C0CFA00FCC2F828
:1016E00010C0401C0828D1D31460B1F800C0BCF170
:1016F000FF0F34DD546800202EE000F1080C4FF09D
:10170000010808FA0CF3B1F800C00CEA03069E4287
:1017100021D183004FF00F0C0CFA03F7BC4305FAFC
:1017200003FC4CEA040491F803C0BCF1280F05D176
:1017300000F1080C08FA0CF8C2F8148091F803C004
:10174000BCF1480F07D100F1080C4FF0010808FA6E
:101750000CF8C2F81080401C0828CED35460BDE8B5
:10176000F0812DE9F04105460C46174698460F2CAE
:1017700002D90020BDE8F0812846FFF71BFF18B909
:101780000121284600F072F8B8F1000F10D1022FA5
:1017900005D1E8680121A1408843E86008E0032FF3
:1017A00006D127F00107E8680121A1400843E8605D
:1017B000082C01D22E4601E0083C2E1D3068A20004
:1017C0000F2191408843306048EA8700A10088409B
:1017D0003168084330600120CCE70000F0B50A46CC
:1017E000002300240021002500F00046B6F1004F40
:1017F00002D11D4EF16901E01B4E7168C0F3034533
:1018000083B200F44016B6F5401F08D121F0706194
:10181000154E766826F07066134F7E6012E000F475
:101820008016B6F5801F06D1032606FA05F4A143FB
:1018300041F0706106E0460D360103FA06F6B14349
:1018400041F0706122B1460D360103FA06F63143CC
:1018500000F00046B6F1004F02D1034EF16101E005
:10186000014E7160F0BD000000000140002945D02C
:10187000454A904206D1454A926942F00402434BE0
:101880009A6180E0424A904206D1404A926942F011
:1018900008023E4B9A6176E03E4A904206D13B4AAE
:1018A000926942F01002394B9A616CE03A4A9042D8
:1018B00006D1364A926942F02002344B9A6162E0C6
:1018C000364A904206D1314A926942F040022F4B8B
:1018D0009A6158E0324A904206D12C4A926942F00D
:1018E00080022A4B9A614EE02E4A90424BD1274A01
:1018F000926942F48072254B9A6144E0224A9042F8
:1019000006D1224A926922F00402204B9A613AE001
:101910001F4A904206D11D4A926922F008021B4BD1
:101920009A6130E01B4A904206D1184A926922F02F
:101930001002164B9A6126E0174A904206D1134ACC
:10194000926922F02002114B9A611CE0134A9042E6
:1019500006D10E4A926922F040020C4B9A6112E0C5
:101960000F4A904206D1094A926922F08002074B41
:101970009A6108E00B4A904205D1044A926922F428
:101980008072024B9A6170470008014000100240CB
:10199000000C0140001001400014014000180140FB
:1019A000001C0140002001400146886880B2704759
:1019B0004161704701617047C160704770B50C4666
:1019C000054600F0FFF8A8682168C16261680163FC
:1019D000A1684163490707D5D0E90021C0E9001299
:1019E000D0E90221C0E90212A1898184216900297C
:1019F00003D001DC4FF00001016270BD2DE9F04120
:101A00001E4617468846054600F0DCF8AC6868229A
:101A1000414604F58A70FEF7AAFF2846B8472846D3
:101A2000B047286980688047A062BDE8F081000067
:101A300010B5044600F0C6F8A0681149144AC0F871
:101A4000AC101049C0F8A8100F49C0F8B0100F49E9
:101A5000C0F8B8100021C0F8BC101368C0F8B4304A
:101A60000C4BC0E933315168C0F8C81030F8261F5C
:101A700021F0030120F82E1B0749016410BD00006E
:101A800011B7000831BD0008D9B600086BB20008D4
:101A9000740100203BB3000879B6000810B5044675
:101AA00000F090F8A46810481021C4F8EC000F482A
:101AB000C4F8F0000E48C4F8F4000E48C4F8F8006A
:101AC0000D48C4F8A0000D48C4F8A400D4F8C8001C
:101AD000C4F80401D4F89420204690471020A06355
:101AE0000748606410BD000025960008D1A00008DA
:101AF000051B0008391C000825B20008ABC100080E
:101B000054230108F8B5846815460F4694F826005A
:101B100080074CD5D4F80831204698470646D4F8BB
:101B20000C312A46394620469847D4F89830054665
:101B30001BB100220121204698472069B04201DDF7
:101B4000012000E00020A169B14201DA012100E09A
:101B5000002108436169A94201DD012100E0002163
:101B60000843E169A94201DA012100E000210843AC
:101B70000AD060680022401E00902368D4F8A87044
:101B8000114620465B1EB847D4F8AC302A46314691
:101B900020469847D4F8A01020468847D4F89830BB
:101BA00005466BB1012200212046984708E0D4F891
:101BB000AC3020469847D4F8A01020468847054608
:101BC0002846F8BD70B504468068002813D14FF44C
:101BD000BE75284600F08CFA074BA0602A461B68A9
:101BE00000219847A0680221C18401210464016298
:101BF0000249C0F8101170BD28020020011C000825
:101C000010B590B0044620220A496846FEF7AFFEA0
:101C100008492022203108A8FEF7A9FE606B5DF874
:101C20002010C4F8081108A951F82000C4F80C01CC
:101C300010B010BD500201082DE9F84384689846A1
:101C4000154694F826000F46800740D5D4F8083191
:101C5000204698470646D4F80C312A463946204695
:101C6000984705462069B04201DD012000E00020D0
:101C7000A169B14201DA012100E000210843616954
:101C8000A94201DD012100E000210843E169A942E8
:101C900001DA012100E0002108430AD06068002237
:101CA000401E00902368D4F8A870114620465B1EA1
:101CB000B847D4F8AC302A46314620469847D4F885
:101CC000A42001B041462046BDE8F0431047D4F8B7
:101CD000AC30F2E72DE9F04FDFF828B191B04FF0CA
:101CE000FF35DBF80030B3F922100691DE69B3F955
:101CF00024A0F469A189814206D8E289824203D3F3
:101D0000471AD4F8008012E0D4E90181002970D08C
:101D10000A8882426DD84D8885426AD3801A82B281
:101D2000486800EB8200B0F90070B0F90250781CEE
:101D30005FD0307EA27C014600FB02F9207CCDE919
:101D40000710B3F92A60304602F006FBC0B20E90CD
:101D5000DBF8001007FB0980A37C8A6B0127CDE923
:101D60000402CDE90273C869089AC17E807ECDE97C
:101D70000001DDE90603514601F05CFE681C18D045
:101D800046F0020002F0E8FADBF80000A37C05FB55
:101D90000981826BCDE90273CDE90412C069089A0A
:101DA000C17E807ECDE90001DDE90603514601F0E8
:101DB00041FEDBF800005D46C069417E007E814245
:101DC00014D9022E12D086F0040002F0C5FA286859
:101DD000C069027EC37E857E02FB03A1437E089A12
:101DE0000698534402FB050201F08CFF0E9802F0A6
:101DF000B3FADBF80000627C418C1144418411B0DD
:101E0000BDE8F08FB000002004480068C069C069D8
:101E100009B1027C0A60407C70470000B0000020DD
:101E2000022008807047C06982898A4202D8C2892C
:101E30008A4210D2806880B102888A420DD84388D5
:101E40008B420AD3406800EB8100A0EB8200B0F91E
:101E50000000002801DB01207047002070470000CF
:101E60002DE9F0432F4C034687B020681946B0F99E
:101E70002A80C069C06900F082F800284ED041680D
:101E80000088181A01EBC0054046AE7802F064FAEB
:101E9000814620686A680123816BCDE90236CDE96D
:101EA0000421C169CB7E8A7ECDE900230B7EB0F987
:101EB00024102A78B0F9220001F0BCFD2068C06926
:101EC000477E067EB7421DD9C07E47434643B8F1E0
:101ED000020F17D000F03CFC804600F02DFC00F013
:101EE00024FF21682A78CB69B1F92200B1F92410C6
:101EF000DB7E02FB0302CB19314401F003FF4046B5
:101F000000F013FF484602F027FA20686A78C36998
:101F1000B0F922109B7E02FB0311418407B0BDE89B
:101F2000F0830000B000002030B50E4C05460B4693
:101F300020682946C069C06900F021F8002810D047
:101F40004168008824682A1A0120E46900EBC20075
:101F5000085CA47E6043002B03D011F8321061436B
:101F6000196030BDB000002001200880704700B526
:101F7000C06900F004F8002800D0012000BD06E090
:101F800002888A4202D842888A4202D280680028A7
:101F9000F6D170472DE9F0410025154E154C18E09B
:101FA0002069C5EB451700EB87007422001D3168DE
:101FB000FEF7DDFC2069002140F8271000EB8700C8
:101FC00000F10C018161011D0A1DC0E90F126D1C99
:101FD0004164A0688542E3DB08F088FE2169C0EB1C
:101FE000401001EB8000001D3060BDE8F081000072
:101FF000B00000204802002070B510490E4808606B
:10200000084601F0D7FB0D4C143CA068C0EB401013
:102010008500284600F06CF8094B20612A461B68B1
:10202000002198474FF0FF30206001F031FABDE801
:10203000704008F05BBE000045B100085C02002063
:102040002802002010B5040009D000F00FFC204643
:1020500006F030FB044601F0E7F9204610BD0020F1
:1020600010BD000038B5054600F000FC2846FFF71B
:10207000E9FF04000AD000F0B3F8064B00902A46AE
:102080001B6800219847684600F0B8F801F0CCF9C9
:10209000204638BD28020020024A106021F00300CB
:1020A00050607047F8C0002010B5040011D000F057
:1020B000DDFB0848042101EBC401406B415848682E
:1020C00006F0B0FA204609F099F8BDE8104001F09A
:1020D000ABB910BD38C00020002805D0034AD16B31
:1020E000016001B14860D0637047000038C0002033
:1020F0002DE9F041044608F091FE2848E41C24F044
:102100000305016C2D1DA94200D90D46C46B13E0D7
:1021100054F8042CAA420ED184B1216809B1626836
:102120004A60616809B122680A60C26BA24231D17B
:102130002168C1632EE02468002CE9D18046816BC0
:10214000C0680F1857F8040C3E1A306838B10020E8
:1021500009F040F957F8040C3E1A3068D0B970689D
:10216000A84217DB3044441B3046241D09F018F9FF
:10217000D8F80C10491BC8F80C10D8F814102944D2
:10218000C8F814107068401B02D0314606F04AFAB5
:1021900044F8045C2046BDE8F081000038C000200F
:1021A00010B5002408F03AFE0C490F2001EBC002E4
:1021B000526C1AB101EBC000406C08E0401EF5D52E
:1021C00008E04168A14200D90C46806810B18068DF
:1021D0000028F6D1A4F10C0010BD000038C000208A
:1021E0000549CA69521CCA61496B01EBC0010A78F2
:1021F000521C0A7000F01AB838C000200A49026860
:102200004B6B52F8082C03EBC2021378022B03D35A
:10221000CB690BB15B1ECB611178491E1170002197
:10222000016008467047000038C0002003490422BE
:1022300002EBC000496B08580830704738C00020D6
:1022400002490968497C00F003B80000B000002092
:102250002DE9FC5F8946044600F008FB484600F083
:1022600083FA2C4E09EB8907824656F82700019025
:1022700029484FF00108016841B92749C0F800809A
:10228000091D26480860084601F094FA214A09EB26
:102290008901BAF1000002EB81051BD000F01EFDA0
:1022A00083464FF07F4000F035FD00F0B9F8002282
:1022B0001146206800F0BAF920684288018850462B
:1022C00000F070FD46F8274085F80480584600F07D
:1022D00005FD17E046F8274085F804802869464642
:1022E00018B100F033FC0020286174B10096E86852
:1022F000A1684B46421AA8686168411A206800F03C
:102300007FFC2861484609F07FFD01F08DF80198B7
:10231000BDE8FC9F8CC10020F400002085B00008BF
:1023200070B514460D46064600F0A0FA204600F0AF
:102330001BFA0300174804EB840109D050F8210070
:1023400041688068711A2A1A184600F01BFD1CE0CB
:1023500000EB8104A268B24201D0012200E0002219
:10236000E368AB4201D0012300E000231A430CD004
:10237000236943B150F82100816840686A1A311A14
:10238000184600F008FCC4E90265BDE8704001F0A1
:102390004BB800008CC1002002480068407C00F06F
:1023A00003B80000B000002010B5044600F05EFA4B
:1023B0000A4804EB840100EB810301221A7150F8F2
:1023C000210030B1204609F01FFDBDE8104001F0AA
:1023D0002BB821460248FFF73BFFF6E78CC10020EF
:1023E000AC00010810B5C2B2CBB2D21A00D552422D
:1023F00093B25B43C0F30722C1F30724121B00D53D
:102400005242000C92B2A0EB114002FB023200B229
:10241000002801DA404200B280B200FB002010BD6B
:1024200010B50021084600F0D9F943F6FF7250427A
:10243000BDE8104013460146AFF300802DE9FC4192
:102440001C4615460E46074600F010FA042001F01F
:1024500083FF804612484069C16C006D0F440644FA
:102460000D440444ADF80070ADF80450ADF80260BE
:10247000ADF80640684605F0C5F907E023462A4650
:102480003146384601F03EFC05F07EF90028F5D1D2
:10249000404601F061FF00F0C7FFBDE8FC8100008D
:1024A0009C0000202DE9F0411C4616460D460746CB
:1024B000022B02DB0020BDE8F0811C20FFF718FE94
:1024C0000028F8D00DB105610AE0094A52F824103D
:1024D00009B905E011460A68002AFBD109690161C2
:1024E00084618682002101604160C0E90217E2E751
:1024F000DC00002070B51D46FFF7D4FF040009D0B2
:1025000000F00EF8E068006820B90348006800EBAE
:1025100085008465204670BDB0000020FFF7DCBD5B
:1025200070B5C0B38269022A36DA2149531C0C788F
:102530009C4200DA0B701F4C54F8221019B944F871
:10254000220032E019464B68002BFBD106E0CB6835
:10255000C5681B682D68AB4203DD09680029F6D108
:102560001AE0C1B1CB68C6681B683668B3420CD1AB
:10257000838A012B05D008E01946DB681B68AB4253
:1025800003DB0B68002BF7D129B14B6833B118601E
:102590004A68426004E0FFE7012070BD44F8220071
:1025A0004860884200D100210160002070BD000019
:1025B000EA000020DC00002010B503E00468FFF70B
:1025C000AFFF20460028F9D110BD000010B50C4B1C
:1025D0008269002153F82240844205D1046843F8FF
:1025E0002240026802B1516042680AB10368136078
:1025F00002680AB1436853600160416010BD000089
:10260000DC00002000207047022801DB002070471A
:10261000054951F8200004E0C16809680029F6D096
:1026200000680028F8D17047DC0000207CB5144613
:102630000D46064600F01AF911480068C16C006D9D
:102640000D4404443188681E0844ADF80400ADF818
:1026500000507188601E0844ADF80600ADF80240D5
:10266000684605F0CFF806E0224629463046FEF7D8
:10267000E5FE05F089F80028F6D100F0D5FE7CBD16
:10268000B000002008B50B46002805D000928188D4
:102690008268C08800F001F808BD10B50828029CC7
:1026A00030D008DC04FB01F401280AD0022813D042
:1026B000042804D11CE0102828D020282CD0002089
:1026C00010BD04EBD30003F00701105CC1F107015A
:1026D000C84000F0010010BD04EB93000621105C1F
:1026E00001EA4301C1F10601C84000F0030010BD3A
:1026F00004EB5300D907105C02D000F00F0010BDAE
:10270000000910BD04FB0130105C10BD481004FB33
:10271000003032F8100010BD881004FB003052F871
:10272000200010BD034951F82000C1688A6A0821C1
:1027300010470000DC00002010B500F097F801F011
:102740004FFB01F0E7FB044600F06EFE204610BD93
:1027500010B500F08BF801F04BFB01F0DBFB0446F9
:1027600000F062FE204610BD0021022802D202497C
:1027700051F82010084670474002002070B51546F9
:102780000E46044600F072F82A463146204601F013
:1027900063FB040002D000203060286000F044FE9B
:1027A000204670BD044835210170342181703221EA
:1027B000C17069210171704794000020024951F8ED
:1027C0002000006900687047DC000020024951F8D1
:1027D0002000006940687047DC00002070B50C469E
:1027E000054600F043F8044800684584848400F0FE
:1027F0001BFE002070BD0000B000002070B500F08E
:10280000F7FE184D2E20287000F030FE164808F014
:10281000C9FA01F0A3FB064601F034FBE8B100243D
:1028200001F03CFBD8B10020044307D001F03FFB8E
:10283000044601F030FB214601F088FD00210846E6
:1028400000F0CEFA04F0DEFDFFF7A4FBA86900B1AA
:1028500080470120A870304670BD0124E0E70120C8
:10286000E2E700009C00002004C1002070B5184C75
:10287000E06820B100F0F5FD6168884204D000F006
:1028800013FE00F0EEFD6060E068401CE06001288F
:102890001CD108F02BFA05462068854216D0002886
:1028A00013DBFFF7AFFE01462068C0EB4012206942
:1028B00000EB82029167C5EB4511064A00EB8100EF
:1028C000011D1160806FFFF777FE256070BD00006D
:1028D00048020020B000002038B504001CD0FFF7EB
:1028E000C5FF0E480068006EA04201D100F0E8F973
:1028F0002046FFF775FC0090406908B100F07EFDAE
:1029000000980068FFF70AFE6846FFF777FC20464C
:10291000FFF7CAFB00F088FD38BD0000B0000020C2
:1029200038B505004FF0000411D0FFF79FFF28468F
:10293000FFF756FC0090006800698068804701F04E
:102940009BFF04466846FFF759FC00F06DFD2046EA
:1029500038BD38B504000ED0FFF788FF2046FFF7DA
:102960003FFC00F1180400906846FFF747FC00F0B8
:102970005BFD204638BD002038BD0000F8B5054697
:10298000FFF774FF104E3068046ECDB10CB100F04B
:1029900097F904F00DFB2846FFF722FC0090316800
:1029A0000D660068FFF7BCFD6846FFF727FC01F0E5
:1029B00069FD01F0ABFC00BF00F036FD2046F8BD1C
:1029C00000F07EF9F8E70000B0000020F8B51646E8
:1029D0000F46050012D0FFF703FC009044696846DB
:1029E000FFF70CFC2846FFF79BFF0346082800DD95
:1029F0002CB132463946284609F0ECFBF8BD324688
:102A00003946284609F086FDF8BD10B5002821D0CA
:102A100009B30AB3B1F90040B2F900309C4200DAC0
:102A200023460380B1F90240B2F902309C4200DA39
:102A300023464380B1F90440B2F904309C4200DDE2
:102A400023468380B1F90610B2F90620914200DCDA
:102A50001146C18010BD11460A6802604968416094
:102A600010BD00280BD003880B44038083881944D1
:102A70008180418811444180C1881144C1807047E0
:102A800070B50E4D0446D5E90001884209D10C49C4
:102A9000884201D13C3000E00C3807C884E80700C8
:102AA00006E090E80E0084E80E0008F03DF928608A
:102AB000207A002800D0012070BD00000001002015
:102AC000CCC100200448D0E90010814201D101208E
:102AD00070470020704700000001002010B5094930
:102AE0000446086820B908480860084600F062FEFD
:102AF000074906480860204609F09CFABDE81040E6
:102B000000F08EB910010020A5B00008797000080F
:102B1000E4000020B0F90220B1F906309A4213DC3B
:102B2000B1F90220B0F906309A420DDCB0F900206C
:102B3000B1F904309A4207DCB1F90010B0F9040091
:102B4000814201DC012070470020704738B5040045
:102B500020D0FFF78BFE204609F0A6FA204609F0A8
:102B600019FB2046FFF73CFB00900068FFF7B4FA22
:102B70000098C068FFF798FA0098C069FFF794FAC8
:102B80006846FFF73BFB2046FFF78EFABDE838406A
:102B900000F04ABC38BD70B515460E4604000AD098
:102BA000FFF764FE2A463146204608F091FEBDE854
:102BB000704000F039BC70BD38B504001ED0FFF77E
:102BC00055FE2046FFF70CFB0090007C800710D4D8
:102BD000204608F0ADF96846FFF710FB204609F0E3
:102BE0002DF92046FFF7FCFA0090018A41F002011E
:102BF00001826846FFF702FB00F016FC38BD0000BA
:102C00002DE9F84304460088089F91468846E8B3BA
:102C10006088D8B3E06818B1806800283BD002E033
:102C2000E088202836D107F0010200212348FFF771
:102C300039FC05002ED02088860060884643FFF7C7
:102C400015FE06F12000FFF70DFA060025D03046EC
:102C5000AE60FFF7C5FA009007824461A0F80480D7
:102C6000A0F80690238808EB0301491E01816188C2
:102C70004944491E418105606846FFF7BFFAE06894
:102C800078B12146304605F099FE00E002E040B1FF
:102C900000F0CAFB0020BDE8F8832846FFF73EFCA1
:102CA000F6E7B80705D5304608F042F9304609F096
:102CB000C5F800F0B9FB3046EDE70000D00101088F
:102CC00010B5FFF7D3FD01F0D7FA01F0DBFB04F0FC
:102CD0007BF8BDE8104000F0A7BB000070B50B4DBD
:102CE00004462868467CFFF7C1FD022C09D2204625
:102CF000FFF78AFC28B128684474FFF7E1FF044815
:102D0000046000F091FB304670BD0000B000002070
:102D10008C01002010B50446FFF7A8FD204601F005
:102D2000CBFABDE8104000F07FBB10B50446FFF7BA
:102D30009DFD204601F0F8FABDE8104000F074BB9C
:102D400001498860704700009C00002010B50446CF
:102D5000FFF78CFD204601F0FFFA044600F064FB0B
:102D6000204610BD70B50446FFF780FD044800689A
:102D7000C56904B1C46100F057FB284670BD00006E
:102D8000B000002070B514460D460646FFF76EFDF4
:102D900022462946304601F0FBFA044600F044FB87
:102DA000204670BD70B514460D460646FFF75EFD21
:102DB00022462946304601F001FB044600F034FB70
:102DC000204670BD70B50C460546FFF74FFD214605
:102DD000284601F01FFB044600F026FB204670BD8C
:102DE00070B50C460546FFF741FD094822460580AF
:102DF0000848048008480068417C084850F82100D1
:102E0000C1680B6A29469847BDE8704000F00CBBCA
:102E1000F0000020F2000020B0000020DC000020C4
:102E200002480068002800D0004770478002002058
:102E300002498A6802B98860FFF7F2BF30020020B9
:102E40002DE9F04F97B01D461646894604464FF0CF
:102E50000008FE49DDF888B0DDF880A0C1F80080E8
:102E6000CDF8408002282AD06A4603AB0BAF0DF1A3
:102E7000200C032C7DDB57D14FF000084FEA0C07E4
:102E800055F828000BF0AEFF4DF828005AF828003E
:102E90000BF0A8FF03A941F8280059F828000BF00F
:102EA000A1FF0BA941F8280056F828000BF09AFF63
:102EB00047F8280008F10108A045E1DBE6E0686872
:102EC0001F68C01B0BF08EFF0446D9E90001081AE9
:102ED0000BF088FF21460BF0A7FEDD4C0546C4E948
:102EE000000838460BF07EFF29460BF093FF80F078
:102EF0000040C4E90208DAE90071C81B0BF072FF58
:102F00000546D6E90010401A0BF06CFF29460BF07D
:102F10008BFE0546206138460BF064FF29460BF016
:102F200079FF80F00040B0E1002041464CF82010CD
:102F300047F8201043F8201042F82010401C0328C6
:102F4000F4DB002760E000BF55F827000BF04AFFD4
:102F5000119002990BF006FE02905AF827000BF030
:102F600041FF804605990BF0FDFD059059F82700BB
:102F700000E0BEE10BF036FF13900D990BF0F2FD6F
:102F80000D9056F827000BF02DFF12900A990BF0C8
:102F9000E9FD0A90119801460BF03CFF00990BF0F7
:102FA000E1FD0090414611980BF034FF01990BF0C0
:102FB000D9FD01900390414640460BF02BFF049948
:102FC0000BF0D0FD0490139911980BF023FF0B998F
:102FD0000BF0C8FD0B90404613990BF01BFF0C99AA
:102FE0000BF0C0FD0C90DDE911010BF013FF089907
:102FF0000BF0B8FD0890404612990BF00BFF0999B1
:103000000BF0B0FD7F1C0990A7429DDB0299009850
:103010000BF00AFE0090059901980BF005FE019057
:10302000DDE902100BF000FE0390DDE904010BF076
:10303000FBFD049002990B980BF0F6FD0B9005999F
:103040000C980BF0F1FD0C90029908980BF0ECFD38
:103050000890059909980BF0E7FD099020460BF0C0
:10306000C1FE0446214602980BF0DEFD0290214687
:1030700005980BF0D9FD059021460D980BF0D4FD75
:103080000D9021460A980BF0CFFD0A900599039800
:103090000BF08CFF0646DDE9010134460BF086FF9C
:1030A00021460BF0B7FE0446DDE904010BF07EFF7C
:1030B0000546029900980BF079FF29460BF0AAFE0D
:1030C00021460BF073FF054610F0FF4F7ED0DDE97F
:1030D0000C01B04644460BF069FF814621460BF0D7
:1030E00099FE0746DDE904010BF060FF8246544675
:1030F0000D990B980BF05AFF064621460BF08AFEFD
:1031000039460BF053FF29460BF08EFD504C2060E2
:10311000DDE901010BF04AFF0146149030460BF047
:1031200079FE0646029900980BF040FF0146159083
:1031300048460BF06FFE31460BF038FF29460BF086
:1031400073FD60600C9900980BF064FE06460B99C5
:1031500001980BF05FFE31460BF028FF05990BF04C
:1031600059FE07460B9902980BF054FE06460D993E
:1031700000980BF04FFE31460BF018FF04990BF04E
:1031800049FE06460D9901980BF044FE81460C99C4
:1031900002980BF03FFE49460BF008FF03990BF035
:1031A00039FE31460BF0DEFC39460BF0DBFC2946DC
:1031B0000BF03AFDA060DDE9090146460BF0F6FE92
:1031C000804631460BF026FE064600E062E0D1461E
:1031D0000A9908980BF0EAFE074649460BF01AFEDA
:1031E00031460BF0E3FE29460BF01EFDE060384649
:1031F00014990BF00FFE0646404615990BF00AFE97
:1032000031460BF0D3FE29460BF00EFD20610999E3
:1032100000980BF0FFFD0646089901980BF0FAFDA7
:1032200031460BF0C3FE05990BF0F4FD07460899F3
:1032300002980BF0EFFD06460A9900980BF0EAFDA4
:1032400031460BF0B3FE049904E000006402002054
:10325000B8C200200BF0DEFD06460A9901980BF07B
:10326000D9FD8046099902980BF0D4FD41460BF038
:103270009DFE03990BF0CEFD31460BF073FC3946F1
:103280000BF070FC29460BF0CFFC1B49606101205C
:10329000086001E0109860B3174C21980021C4E940
:1032A000010B084607F050FE0021E060084607F0D9
:1032B0008DFE20612198ABF10101401E07F044FE14
:1032C00060612198ABF10101401E07F07FFEA06113
:1032D0006269E168914201DDE260616121698142D8
:1032E00001DDA1612061206818B1002017B0BDE8A0
:1032F000F08F0120FAE70000640200202DE9FE4370
:10330000DFF8B89005000A9ED9F814C04FF000000D
:10331000CCF3410709F1300439D0012D02D001204E
:10332000BDE8FE83DFF8948008F12008C8E90012A8
:10333000052131EA0C013ED0012F3CD0C4E9003612
:10334000012199F80030A9404A46194201D00023D2
:10335000137013781943C9B289F800100329DFD11B
:10336000174E3068407C00F093FD05463068407C85
:1033700000F09AFD114B0094CDE901502833A3F1E0
:103380000802A2F108010220FFF75AFDC8E7DFF8A2
:103390002C80032F08F11808C8E9001208F1100169
:1033A00006D00CF00502012A02D0C1E90036C7E7B9
:1033B000C1E90063C4E7C4E90063C1E71801002064
:1033C000B000002002490968491C014A1160704799
:1033D000540000202DE9F0411E46069C1746884601
:1033E00005463A46A8687F1C3346D0F804C04146DB
:1033F0002846E047641EF4D1BDE8F08138B50546A3
:10340000FFF734FA2846FEF7EBFE00908189491E4B
:103410000CB284816846FEF7F1FE14B92846FEF727
:1034200043FE00F001F838BD0348C168491EC16081
:1034300001D100F043B870474802002010B54FF4A6
:10344000A0410348FEF728FE0248FFF779FC10BDB3
:103450009C0E00208C08010810B5012009F038FEF0
:1034600010BD10B509F062FF10BD000010B50022BC
:103470000121054809F06CFF044908600121034857
:10348000006809F07BFF10BD44FE000858000020D2
:1034900010B5034809F0C4FE0249086010BD0000E1
:1034A0004CFE00085C00002010B54FF0FF310248D0
:1034B000006809F0D7FE10BD5C00002010B502487E
:1034C000006809F0C3FE10BD5C00002010B5082A9A
:1034D0000EDC0346012A18D0022A56D0042A76D0E0
:1034E00010F8042B03F8012B491EF9D1012010BD5F
:1034F000102A08DC4FEA000230F8043B22F8023BB5
:10350000491EF9D1F2E7002010BD10F8042BD207B4
:10351000120E491E34D010F8044B491E04F0010469
:1035200042EA84122CD010F8044B491E04F0010426
:1035300042EA441224D010F8044B491E04F001045E
:1035400042EA04121CD010F8044B491E04F0010496
:1035500042EAC40214D010F8044B491E04F00104DE
:1035600042EA84020CD010F8044B491E04F0010416
:1035700042EA440204D010F8044B04F00104224350
:1035800003F8012B0029C0D1B0E710F8042B9207F3
:10359000120E491E15D010F8044B491E04F0030406
:1035A00042EA04120DD010F8044B491E04F0030443
:1035B00042EA840205D010F8044B04F003042243CD
:1035C000491E03F8012B0029DFD18FE7FFE710F830
:1035D000042B1207120E491E05D010F8044B04F0FC
:1035E0000F042243491E03F8012B0029EFD17DE788
:1035F0001FB51848416B00292BD10121416316A149
:10360000194C0FC98DE80F00684600BF10F8011B68
:1036100004F8011B01780029F8D1FFF7C3F800BFB7
:1036200010F8011B04F8011B01780029F8D10020D3
:103630002070FFF703FFFEF7DFFC00F0A7FF05494E
:103640000A483831086004B00846BDE8104000F070
:10365000B1B81FBD9C000020534547474552206527
:103660006D57696E2056000078C100204DB00008EB
:10367000B0F90030B1F90020934200DA0280B0F9CD
:103680000230B1F90220934200DA4280B0F90430EE
:10369000B1F90420934200DD8280B0F90620B1F92F
:1036A00006108A4200DDC180704770B5B1F9004054
:1036B000B2F900309C4200DD23460380B1F902508C
:1036C000B2F90240A54200DD2C464480B1F9046005
:1036D000B2F90450AE4200DA35468580B1F90610E1
:1036E000B2F90620914200DB1146C1809D4201DB08
:1036F000A14201DA002070BD012070BD30B581F01B
:103700007F43FF2480F07F4094EA116101D120F0D3
:103710007F43010E5143B1FBF4F100F0FF15C1F1FD
:10372000FF0203F0FF14544301FB05444FF0FF1563
:10373000240A05EA1323C0F30720534340F08070A6
:1037400001FB003104F0FF1001F0FF21084380F07D
:103750007F4030BD2DE9F05F0646DDF83890154614
:103760000C4600200D99804688421ED2DFF840B0FA
:103770000C9F4FF0FF0A02CE08CCAAEB116202FBAD
:1037800009F2B2FBFAF0C2B221F07F401946DBF831
:103790000030984720F07F4001C57F1EEBD10A988A
:1037A00004EB800408F10100DCE7BDE8F09F0000B5
:1037B000F801002002490A6B42600863704700006C
:1037C0009C00002010B5830702D520F8021B521E72
:1037D000530811D001EB0144042B09DB10C01B1F5F
:1037E00010C0042B40F8084B40F8044CF6DA01E016
:1037F00010C05B1E002BFBD1D20700D0018010BD92
:1038000010B58AB000F04EFC4FF480614448FEF7DA
:10381000D1F80020434908600A2009F059FC4FF410
:1038200080613F48FEF7C4F8642009F051FC4FF472
:1038300080613B48FEF7BEF800F090FA322009F0B4
:1038400047FC0121002000F037FE322009F040FC47
:10385000002000F033FC3449888008468088FF2827
:103860000ADB084680884FF6FF71884204D02E4854
:103870008088B0F5134F38D1D32000F065FE00F0FA
:1038800025FC00F023FC00F021FC27498880084635
:1038900080884FF6FF7101EA00202349888000F0FC
:1038A00015FC2149898808431F49888028216846DA
:1038B000FDF7BCF81C4882881CA16846FCF7F6FDA1
:1038C0006846FCF7AAFF04461D482146426968463F
:1038D00090470A2009F0FCFB1348808849F24131E7
:1038E000884202D00846104988800F48808849F2F3
:1038F0004131884208D109F063FA00F0FDF97820DF
:1039000009F0E6FB00F090F8002000F067F80120D5
:10391000044908604FF4FC6000F014F80AB010BDD0
:1039200000100140840121427C0E00206C63642061
:103930006964206973203A203078253034580A00B1
:1039400094FF000870B50446164800881549498858
:1039500000FB01F60021084600F070FD00F0A4FD18
:1039600000251BE04FF480710F48FEF723F84FF459
:1039700000710D48FEF71CF821460C48FEF71CF8B4
:1039800080210948FEF714F880210748FEF712F855
:103990004FF400710448FEF70DF86D1CB542E1D3F9
:1039A00070BD00007C0E002000100140000C0140A2
:1039B0000449054A0968497C52F8211009690968D7
:1039C00008470000B0000020DC00002000BF011EFE
:1039D000A0F10102D0B2FAD17047000010B5044640
:1039E00074B900200F498871F02008804FF4A0704E
:1039F00048802C20C8712A2008722B2048720DE0C4
:103A00000120084988714FF4A0700880F020488098
:103A10002C20C8712A2008722B204872002000F048
:103A200091FB10BD7C0E002010B5292000F08CFD0C
:103A300010BD00002DE9F04F05468DB07B48DDF844
:103A400060901A9C00681E4617464FF0000A78B135
:103A50001B9B199ACDF808900593CDE90324DDE965
:103A60001623CDE90023046833463A46284680E011
:103A7000DDE9160201EB060805EB070C1043A8F17F
:103A80000108ACF1010C012806D0C9F1080005902D
:103A9000002002910990C6E065480268B2F90A3038
:103AA000581A002806DD361A002E63DD1946199BC8
:103AB00000FB0344B2F90E00A8EB0000002802DD71
:103AC000361A002E56DDB2F90C00ACEB00000028CF
:103AD00000DD3F1AB2F908300020AB4235DD581B3B
:103AE0003F1A4B46B9F1080F26D006DC012B0BD04C
:103AF000022B11D0042B28D116E0102B1ED0182B2E
:103B00001FD0202B21D11CE020F0070304EBE004A0
:103B10001D4400F0070018E020F0030304EBA004AC
:103B20001D4400F0030010E020F0010304EB6004EA
:103B30001D4400F0010008E0044404E004EB4004EC
:103B400001E004EB800405440020002F12DD1B9BE4
:103B5000DDF864C0CDE90403CDE90069CDE902C414
:103B6000527C34483B4650F82200C26854680A46EA
:103B70002946A0470DB0BDE8F08F17990298084478
:103B80000C902B49401E00900A68B2F90A3083421B
:103B900041DCB2F90E10029881423CDB4FF0000B81
:103BA000D84603950A9434E0BBF1000F05D10A987A
:103BB0004FF0080B10F801AB0A900599ABEB090B1D
:103BC0003AFA01F00AFA09F101F0FF0A04D11849A2
:103BD0000968097C890716D415490968C96B0A6800
:103BE0000B921B9A0AB152F82000086016990398AC
:103BF000009B4218521E029900F084F80C490B9861
:103C00000968C96B08600399169808F1010808440F
:103C10000390B845C8DB0998401C09900C980290A5
:103C2000199804440998B042A7DBA3E7EC000020F0
:103C3000B0000020DC000020F0B40C4612490968F6
:103C4000B1F90A30A3421CDCB1F90E30A34218DBF3
:103C5000B1F90830834200DD1846B1F90C309342C7
:103C600000DA1A4682420CDB4B7C084951F823509B
:103C700013462246E9688E6801462846B446F0BCE1
:103C80006047F0BC70470000B0000020DC0000205E
:103C90000A46174930B40968B1F90A30934225DC65
:103CA000B1F90E30934221DBB1F9083083421DDCBB
:103CB000B1F90C30834219DB0B7C0E4CDB0709D0C9
:103CC000497C54F82130D968CC690146A44630BCFF
:103CD00018466047CB6B497C1B6854F82140E1686B
:103CE0008D6901462046AC4630BC604730BC704709
:103CF000B0000020DC00002010B5112000F024FCF2
:103D000010BD000038B5134C2468B4F90850854242
:103D100000DD2846B4F90C50954200DA2A4682426A
:103D200017DBB4F90A508D4200DD2946B4F90E5074
:103D30009D4200DA2B468B420BDB0093647C064BE2
:103D400053F82440E3681D6913460A46014620469D
:103D5000A84738BDB0000020DC00002008B50121D4
:103D60001D2000F097FE01211748FDF737FD4FF4A5
:103D7000F860ADF8000010208DF8030003208DF8E6
:103D8000020069461148FDF761FC0220ADF8000011
:103D900069460F48FDF75AFC4FF6FF70ADF800007A
:103DA00069460C48FDF752FC4FF6FF710948FDF7D4
:103DB00001FE4FF4F8610548FDF7FCFD02210448BF
:103DC000FDF7F8FD08BD00000002300000100140C2
:103DD00000080140000C0140082106F068BE000008
:103DE00002480068806B006870470000B000002047
:103DF00002480068C06B006870470000B0000020F7
:103E0000024809210068407C06F051BEB000002045
:103E1000092106F04CBE70B500252C462046FEF761
:103E2000F3FB00B16D1C641C022CF7DB284670BD4F
:103E300002480068407C00F003B80000B000002099
:103E400010B5FEF7E1FB002805D0C168CA6ABDE8DD
:103E500010400221104710BDF8B515460E4601244A
:103E6000FEF7D2FB009058B1C0680421426A684650
:103E70009047030004D02A46314600989847002412
:103E80002046F8BD0148006870470000500100203E
:103E9000012106F00CBE012006F0A4BE01484068D6
:103EA0007047000050010020022106F000BE0220F1
:103EB00006F098BEAFF300802DE9F041060008D06F
:103EC000B76837B11248816819B13468B4F5807F9A
:103ED00002DD0020BDE8F08101688C4200DD0C4667
:103EE0000025804609E000BF57F82500FFF760FD78
:103EF000D8F8081041F825006D1CA542F4DBD8F86D
:103F00000410444609B130468847A068E2E7000043
:103F1000900200200449054A0968497C52F82110A2
:103F20000969496808470000B0000020DC00002053
:103F300010B5084A084B00F01F01C0F34514C0F348
:103F4000C420515C1B5D105C01EB032101EB0040C0
:103F500010BD000080180108A0180108F8B500F095
:103F6000D5F900F047F8040040D100252846FEF7B7
:103F70004BFB009048B1C0680C21426A68469047EC
:103F8000010007D00098884704436D1C022DEDDB2B
:103F900014B12BE00120F8BD00F046F814486FF092
:103FA00070410068884221D001258E132846FEF713
:103FB0002BFB0090C0B12846FEF790FE042000F0D5
:103FC000CBF90021324633460846FFF79BFE00201E
:103FD00000F0C2F900980E21C068426A6846904716
:103FE000010001D0009888476D1EDFD52046F8BD3E
:103FF000AC00002010B50A4CA06860B920688000B1
:10400000FEF776F8A06040B104F10C0105480860A5
:104010000846FFF7CFFB002010BD012010BD0000B7
:104020009002002059B100082DE9F047FFF7F3FE98
:1040300007460024DFF860802AE02046FEF7E4FA15
:1040400028B3D8F8000090F8119044742046FFF788
:10405000C3FE082817DC1148114950F824000069F4
:10406000884210D02046FFF7D3FE0646002508E020
:10407000E8B2FFF74FFF0246E9B2204600F072F9BE
:104080006D1CB542F4DBD8F8001081F81190641C67
:10409000BC42D2DBBDE8F087B0000020DC0000208D
:1040A0009023010808B51020032302220249009042
:1040B000042000F0FFFC08BD000C014010B50446D0
:1040C000204600F041FA00F001F810BD10B50024C0
:1040D0004FF0883019490860091D08604FF6FF70DD
:1040E00016490C31086089151548FDF763FC4FF43B
:1040F00000711348FDF75CFC40211148FDF758FCA6
:104100000220FFF763FC0D48FDF74EFC04464021FA
:104110000B48FDF74FFC4FF400710948FDF74AFCCE
:104120004FF0333005490860091D08604FF6FF70F5
:1041300002490C310860204610BD0000000C01400F
:10414000001001402DE9F04105460027002400261B
:1041500048488079012818D1082D15D2DFE805F0EC
:104160000406080A0C0E101206250DE007250BE0C8
:10417000042509E0052507E0012505E0002503E009
:10418000032501E0022500BF00BF082D1CD2DFE897
:1041900005F00406090C0F12151800BF14E044F0D6
:1041A000800411E044F040040EE044F0C0040BE051
:1041B00044F0200408E044F0600405E044F0A0046A
:1041C00002E044F0E00400BF00BF362744F00804DA
:1041D0002146384600F070F904F0200068B1254807
:1041E000008824494988884214DA22480688408891
:1041F00020490880084646800CE01E4800881D497A
:104200004988884206DD1B4806884088194908808D
:10421000084646801749087A00F096F9002000F019
:1042200071F9002000F06EF912490988491EC1F3A6
:104230000F2000F067F90F490978491EC8B200F055
:1042400061F90C49487A00F07FF9002000F05AF932
:10425000002000F057F907494988491EC1F30F2093
:1042600000F050F903498978491EC8B200F04AF9B4
:10427000BDE8F0817C0E002010B50D4C0D49206882
:10428000407C51F8200048B1C16811B10968042987
:1042900001D00068F7E708B1FEF798F9206800211F
:1042A000016600F108014161BDE8104000F02EB840
:1042B000B0000020DC000020014909684968084777
:1042C0008C020020044909680A7C520701D5C96B99
:1042D00000E0896B08607047B00000207CB5094C95
:1042E00005462068417C084850F82100C1680A6BE7
:1042F0006946904720686A4629460830FFF7D5F995
:104300007CBD0000B0000020DC00002004480168F3
:1043100004484A7C083150F82200C268126B1047EA
:10432000B0000020DC000020014909680968084746
:104330008C020020044909680A7C520701D5896B68
:1043400000E0C96B08607047B0000020014AC2E974
:104350000001704750010020014909688968084739
:104360008C020020F8B515460E460124FEF74CF9E4
:10437000009058B1C0681021426A68469047030017
:1043800004D02A4631460098984700242046F8BDBC
:10439000F8B515460E460124FEF736F9009058B1DF
:1043A000C0680321426A68469047030004D02A4649
:1043B00031460098984700242046F8BDF8B51546C8
:1043C0000E460124FEF720F9009058B1C0680B2179
:1043D000426A68469047030004D02A463146009856
:1043E000984700242046F8BDF8B515460E4601242E
:1043F000FEF70AF9009058B1C0680A21426A68467F
:104400009047030004D02A4631460098984700247C
:104410002046F8BD38B50D460124FEF7F5F80090AA
:1044200050B1C0680621426A68469047020003D036
:104430002946009890470024204638BD70B50446B0
:104440000D460F480088A04203DB0D484088A84273
:1044500000DA70BD0A49087A00F076F8201200F000
:1044600051F8E0B200F04EF80549487A00F06CF8D7
:10447000281200F047F8E8B200F044F800BFE8E77F
:104480007C0E002010B5074C2068006BFFF790FAF7
:10449000FFF750FF2068406BFFF78AFABDE8104035
:1044A000FFF710BFB000002010B50249C87900F036
:1044B0004BF810BD7C0E002070B504460D4620461A
:1044C00000F042F84FF480710C48FDF773FA4FF496
:1044D00000710A48FDF76CFA29460948FDF76CFAA5
:1044E00080210648FDF764FA80210448FDF762FA4E
:1044F0004FF400710148FDF75DFA70BD00100140F6
:10450000000C014010B504464FF480710C48FDF7D3
:1045100051FA4FF400710A48FDF74AFA214609485A
:10452000FDF74AFA80210648FDF742FA8021044847
:10453000FDF740FA4FF400710148FDF73BFA10BD5A
:1045400000100140000C014010B504464FF480718A
:104550000C48FDF72DFA4FF400710A48FDF728FAD0
:1045600021460948FDF728FA80210648FDF720FA80
:1045700080210448FDF71EFA4FF400710148FDF751
:1045800019FA10BD00100140000C014010B5A0B098
:1045900014211BA8FCF74AFA682101A8FCF746FA87
:1045A00000231A461E491F48FDF7A4FF04464FF496
:1045B000A072F0210020FFF701FF4FF4A072F0215C
:1045C0000020FFF711FFF02000230246194600905B
:1045D0001846FEF793FE4FF4A070002302461946DA
:1045E00000900120FEF78AFE00201C901B90052001
:1045F0001D9002201F901BA92046FDF7DFF90A48F5
:1046000009900A480A900A480C900A4810900A4BF0
:104610000A4A01A92046FDF7F1F920B010BD0000BB
:10462000040201081C020108D949000831490008A8
:104630007D490008AD4800089D1A0008311A00089D
:104640002DE9F04106460C461746012C06D1FFF72E
:10465000D7F8FCF76FFC0020BDE8F0814FF0FF3584
:1046600000BF00BF2846F7E72DE9FF4F8DB0174682
:10467000674ADDF870901E9E209812681D4600243F
:104680008AB11D9B1F98CDE90293CDE90460DDE955
:104690001A03CDE9000314682B463A460D98A0474B
:1046A00011B0BDE8F08F0D9A01EB050802EB070C85
:1046B000DDE91A231A43A8F10108ACF1010C012A23
:1046C00006D0C9F108004FF0000B029105909CE064
:1046D000504A1268B2F90A40631A002B06DDED1A3F
:1046E000002DDDDD21461D9C03FB0466B2F90E3072
:1046F000A8EB0303002B02DDED1A002DD0DDB2F98B
:104700000C30ACEB0303002B00DDFF1A0D9B1C1AD1
:10471000B2F90830A3420DDDA3EB040C0CEB00034F
:10472000181A20F007000444A7EB0C0706EBE30679
:1047300003F00700002FB3DDDDF874C01F9BCDE947
:1047400002C6CDE90403CDE90059527C32483B460C
:1047500050F82200C26855680A462146A8479FE7DC
:104760001B99029808440C902A49401E00900A6840
:10477000B2F90A30834242DCB2F90E10029881424B
:104780003DDB4FF0000A0D980A96D046039034E0C6
:10479000BAF1000F05D10A984FF0080A10F8014B42
:1047A0000A900599AAEB090A34FA01F004FA09F40F
:1047B000E4B204D117490968097C890717D415495F
:1047C0000968C96B0A680B921F9A0AB152F8200057
:1047D000086003991A98009B0A18DDE90210521E1E
:1047E000FFF790FA0B490B980968C96B08600399A9
:1047F0001A9808F1010808440390B845C8DB0C98E2
:1048000002901D980BF1010B0644AB45A8DB47E76E
:10481000EC000020B0000020DC000020002818D0B0
:10482000410817D0810817D0C10817D0010917D047
:10483000410917D0010A17D0410A17D0010B15D032
:10484000C10B13D0010C11D0810C11D0000E11D06E
:1048500020207047012070470220704703207047D6
:1048600004207047052070470820704710207047CB
:10487000122070471820704700B50022FFF7CEFFC6
:10488000012804D0811E062903D808220BE001224A
:1048900009E0A0F10901072901D8102203E011382D
:1048A0000F2800D82022104600BD000070B5044635
:1048B0000D464FF088301C490860091D08604FF60E
:1048C000FF7019490C31086049151848FDF770F858
:1048D00080211648FDF76EF84FF480711348FDF7FC
:1048E00069F80CE040211148FDF762F80E48FDF729
:1048F0005BF824F8020B40210C48FDF75BF8281EFA
:10490000A5F10105EED14FF400710848FDF752F80A
:104910004FF0333004490860091D08604FF6FF70FE
:1049200001490C31086070BD000C014000100140CD
:1049300010B504464FF400710E48FDF739F84021D8
:104940000C48FDF737F84FF480710A48FDF732F84C
:1049500080210848FDF72CF821460748FDF72CF880
:1049600080210448FDF726F84FF400710148FDF757
:1049700021F810BD00100140000C014070B5044644
:104980000D464FF400711248FDF712F8402110480F
:10499000FDF710F84FF480710D48FDF70BF80CE0AF
:1049A00080210B48FDF704F834F8021B0948FDF795
:1049B00003F880210648FCF7FDFF281EA5F101053C
:1049C000EED14FF400710248FCF7F4FF70BD000017
:1049D00000100140000C014010B504464FF4007176
:1049E0000E48FCF7E5FF40210C48FCF7E3FF4FF4CD
:1049F00080710A48FCF7DCFF80210848FCF7D8FFEB
:104A000021460748FCF7D8FF80210448FCF7D2FF75
:104A10004FF400710148FCF7CDFF10BD00100140BC
:104A2000000C014070B5002100230F22C47804B3AC
:104A3000154C246804F4E064C4F5E064210AC1F173
:104A40000403CA40447804FA03F1847814402143F3
:104A500009010E4C0678A155047804F01F050124C5
:104A6000AC4005786D11AD0005F1E025C5F80041B9
:104A700009E0047804F01F050124AC40044D0678D9
:104A8000761145F8264070BD0CED00E000E400E032
:104A900080E100E029B1064A92690243044B9A6121
:104AA00004E0034A92698243014B9A617047000017
:104AB000001002402DE9F84307460C4615461E46F5
:104AC000DDF8208001213846FFF7E4FFADF8005003
:104AD0008DF802608DF8038069462046FCF7B6FD2C
:104AE000BDE8F88310B500F001F810BD0CB500204A
:104AF000019000903348006840F4803031490860EC
:104B000000BF3048006800F4003000900198401C5D
:104B10000190009818B90198B0F5A06FF1D129481B
:104B2000006800F4003010B10120009001E0002086
:104B300000900098012843D12348006840F01000FD
:104B4000214908600846006820F003000860084614
:104B5000006840F0020008601A484068194948603F
:104B60000846406848600846406840F480604860F5
:104B70000846406820F47C1048600846406840F4CD
:104B8000E81048600846006840F08070086000BF88
:104B90000C48006800F000700028F9D0094840680F
:104BA00020F00300074948600846406840F00200D2
:104BB000486000BF0348406800F00C000828F9D1A5
:104BC0000CBD0000001002400020024010B5134848
:104BD000006840F00100114908600846406810492B
:104BE00008400E494860084600680E4908400B49D5
:104BF00008600846006820F4802008600846406885
:104C000020F4FE0048604FF41F008860FFF76AFF41
:104C10004FF000600449086010BD00000010024021
:104C20000000FFF8FFFFF6FE08ED00E02DE9F0417F
:104C3000A6B0054696272C46204609F0F5FD2046ED
:104C400009F0E6FD28B90A2008F042FA26B0BDE8CE
:104C5000F08126E0E4682089002803DD2089401ED9
:104C600020811EE0268800BF3146284609F0B4FEA8
:104C70000028F9D098216846FBF7D8FE33460B4A46
:104C800096216846FBF726FC6846FBF7C6FD804682
:104C900007484146426968469047142008F018FAD0
:104CA00000BFE0680028D5D100BFCFE7A4240108E9
:104CB00094FF000810B5024800F02DFF10BD000061
:104CC0005CFF000870B504460D46034A294620469D
:104CD00000F054FA70BD0000CCFE000810B50F487B
:104CE00081680F4888470D480169022088470B48B2
:104CF0004FF4E131826A0120904708480121826A1D
:104D00001520904705480121826A162090470348E4
:104D10001821426903A0904710BD000094FF0008CD
:104D2000394E000869276D207573617274312066F1
:104D30006F7220646562756750310D0A00000000D3
:104D400008B5024800F02AFE009008BDCCFE00081D
:104D500008B5024800F025FE009008BDCCFE000812
:104D600010B5024800F065FE10BD0000CCFE000842
:104D700008B5024800F061FE009008BDCCFE0008B6
:104D800010B5024800F0C3FE10BD0000CCFE0008C4
:104D900010B5024800F0BFFE10BD0000CCFE0008B8
:104DA00010B504460249204600F0EDFF10BD00009A
:104DB000CCFE000810B504460249204601F0A0F8D8
:104DC00010BD0000CCFE000870B504460D46034A35
:104DD0002946204601F0A8F970BD0000CCFE00086D
:104DE00070B504460D46034A2946204601F0EDF908
:104DF00070BD0000CCFE000810B5044602492046F4
:104E000001F027FA10BD0000CCFE000870B5044682
:104E10000D461646034B32462946204601F067FAF6
:104E200070BD0000CCFE000810B5024801F094FAF5
:104E300010BD0000CCFE00087047000070B50446AD
:104E40000D46034A2946204600F098F970BD00003F
:104E500014FF000808B501210420FFF71BFE4FF4E2
:104E60008050ADF8000003208DF8020010208DF86E
:104E7000030069461048FCF7E9FB104881681048B8
:104E800088470E480169022088470C484FF4E131F9
:104E9000826A0120904709480121826A15209047C3
:104EA00006480121826A1620904704481C21426965
:104EB00004A0904708BD000000080140CCFF000896
:104EC000DD4F000869276D207573617274352066A7
:104ED0006F7220646174615472616E7350310D0A97
:104EE0000000000008B5024800F058FD009008BD21
:104EF00014FF000808B5024800F053FD009008BDFB
:104F000014FF000810B5024800F093FD10BD00002A
:104F100014FF000808B5024800F08FFD009008BD9E
:104F200014FF000810B5024800F0F1FD10BD0000AC
:104F300014FF000810B5024800F0EDFD10BD0000A0
:104F400014FF000810B504460249204600F01BFF7C
:104F500010BD000014FF000810B5044602492046A9
:104F600000F0CEFF10BD000014FF000870B504462D
:104F70000D46034A2946204601F0D6F870BD0000D0
:104F800014FF000870B504460D46034A2946204622
:104F900001F01BF970BD000014FF000810B50446B5
:104FA0000249204601F055F910BD000014FF000829
:104FB00070B504460D461646034B32462946204638
:104FC00001F095F970BD000014FF000810B502480B
:104FD00001F0C2F910BD000014FF00087047000086
:104FE00070B504460D46034A2946204600F0C6F82F
:104FF00070BD00005CFF000808B5194881681948B9
:105000008847174801690220884715484FF4E13165
:10501000826A0120904712480121826A1520904738
:105020000F480121826A1620904701210420FFF7D2
:1050300031FD4FF48050ADF8000010208DF80300D2
:1050400003208DF8020069460748FCF7FFFA0120AB
:105050000649086002481C21426905A0904708BD26
:10506000040001087951000800080140B001214204
:1050700069276D2075736172743520666F722064C4
:105080006174615472616E7350320D0A0000000049
:1050900008B5024800F082FC009008BD5CFF0008E3
:1050A00008B5024800F07DFC009008BD5CFF0008D8
:1050B00010B5024800F0BDFC10BD00005CFF000808
:1050C00008B5024800F0B9FC009008BD5CFF00087C
:1050D00010B5024800F01BFD10BD00005CFF000889
:1050E00010B504460249204600F04DFE10BD0000F8
:1050F0005CFF000810B504460249204600F000FF9E
:1051000010BD00005CFF000870B504460D46034A60
:105110002946204601F008F870BD00005CFF000839
:1051200070B504460D46034A2946204601F04DF865
:1051300070BD00005CFF000810B50446024920461F
:1051400001F087F810BD00005CFF000870B5044650
:105150000D461646034B32462946204601F0C7F855
:1051600070BD00005CFF000810B5024801F0F4F8C3
:1051700010BD00005CFF0008704700002DE9FE4FE5
:1051800007460D461446206BC07A00F0020018B99D
:105190004FF0FF30BDE8FE8F002000908046834630
:1051A000F8B2153806287CD2DFE800F0A3DC032C27
:1051B0004E6CA5B1606B90F8210010B16FF001004A
:1051C000E8E70120616B81F82100616B81F8200024
:1051D0006068808940F081006168888110E0606BC0
:1051E00090F8200060B16068808920F080006168DC
:1051F00088810020616B81F82000616B81F82100BB
:105200000020C7E76068808920F0C000616888815D
:10521000A06A88B1606B90F8210068B16068808AEC
:1052200020F0800061688882A16A0868016821F026
:105230000101016000BF00BF0020616B81F8200008
:10524000616B81F82100A5E76068808920F020006B
:1052500061688881E06A80B1206B407968B16068DC
:10526000808A20F0400061688882E16A08680168ED
:1052700021F00101016000BF00BF0021206B4171DE
:10528000002087E76068808920F0E00061688881FD
:10529000A06A98B1606B90F8210078B16068808A4C
:1052A00000E0C2E020F0800061688882A16A08689E
:1052B000016821F00101016000BF00BFE06A80B118
:1052C000206B407968B16068808A20F04000616896
:1052D0008882E16A0868016821F00101016000BF6D
:1052E00000BF0021206B41710020616B81F821001B
:1052F00050E7E06810B94FF0FF304BE7BDB1206BCD
:10530000C068062806D0E26891880323106802224C
:10531000FCF727FA206BC07A40F00800216BC872B6
:105320006068808940F008006168888118E06068E2
:10533000808920F0080061688881206BC07A20F0A5
:105340000800216BC872206BC068062808D0E0688E
:1053500030B1E2689188002310681A46FCF701FA20
:10536000002017E7206910B94FF0FF3012E7E5B3CE
:10537000206BC06806280AD0206BC068042806D0BD
:1053800022699188002310680122FCF7EAF9206B5A
:10539000C07A40F01000216BC8726068808A40F0CB
:1053A0000100616888826068008A40F0400061689E
:1053B00008826068808940F0100061688881206BF5
:1053C000407918B1E06A08B1012000E0002028B956
:1053D0006068808940F02000616888816068808909
:1053E00040F00400616888811DE0FFE76068808903
:1053F00020F0040061688881206BC07A20F01000E2
:10540000216BC872206BC06806280CD0206BC06866
:10541000042808D0206930B12269918800231068DF
:105420001A46FCF79EF90020B4E600BF00BF206BCF
:10543000407918B9606B90F8210010B16FF001004D
:10544000A8E66068808900F0080038B160680088CC
:1054500000F0400010B96FF001009BE6F8B215288B
:1054600072D2DFE800F0C90B0E1D20252AC9C9C978
:10547000C9C9C9C9C9C9373B697EB80001200290B2
:10548000BDE02078C0F3400020B148F4006848F443
:10549000807802E06FF006007CE602200290AEE029
:1054A0006FF0060076E64BF0080B04200290A6E0B1
:1054B0004BF0020B05200290A1E02078C0F34010D1
:1054C00010B14BF0200B02E06FF0060062E6062000
:1054D000029094E0616B4D8300205BE6206BC06816
:1054E000052824D015B36068808A40F00400616804
:1054F0008882D4F808A0FE48B0FBFAFA012605E03D
:105500000AFB06F0A84200D902E0761CFF2EF7D96C
:1055100000BFB6F5807F02D14FF0FF303AE66068F9
:10552000008B20F0FF0030436168088302E04FF0F9
:10553000FF302FE600202DE6206BC06806280BD137
:10554000FF2D02D9C01F25E656E06068008BC0B26F
:1055500028436168088302E04FF0FF301AE600201C
:1055600018E6206BC068062830D1D4F808A0E048BF
:10557000B0FBFAFA012619E00AFB06F040006421AC
:10558000484305EB051101EB4101B0EB410F0CD293
:105590000AFB06F040006421484305EB051101EBCE
:1055A0004511B0EB410F00D902E0761C402EE3D349
:1055B00000BF402E02D14FF0FF30EBE56068008B5A
:1055C00020F0FF0030436168088302E04FF0FF30B5
:1055D000E0E50020DEE5206BC068062807D14DB16C
:1055E0006068808A40F010006168888202E04FF0B5
:1055F000FF30CFE50020CDE56FF00300CAE500BF26
:1056000007F4E06060B1B0F5807F13D0B0F5E06FD3
:105610001DD107F4405010B96FF00800BAE519E049
:1056200007F4405028B148F02008009840F480501A
:1056300000900FE007F4405010B16FF00800A9E5AA
:1056400048F02008009840F48050009002E06FF08D
:1056500008009FE500BF07F4405030B1B0F5805F0F
:1056600004D0B0F5005F0BD105E00CE0009840F4E9
:105670008060009007E0009840F4C060009002E075
:105680006FF0090086E500BF07F4404048B1B0F56F
:10569000804F07D0B0F5004F07D0B0F5404F0AD18A
:1056A00006E00BE048F4005808E048F4405805E0F4
:1056B00048F4805802E06FF00A006BE500BF07F481
:1056C000403048B1B0F5803F09D0B0F5003F13D06D
:1056D000B0F5403F2ED11CE04FF000092DE02078BE
:1056E000C0F3C01020B14FF480394BF4807B02E04E
:1056F0006FF00B004EE520E02088C0F3002020B1C1
:105700004FF400394BF4C06B02E06FF00B0041E541
:1057100013E02078C0F3C01040B12088C0F300200F
:1057200020B14FF440394BF4E06B02E06FF00B0016
:1057300030E502E06FF00B002CE500BF0298022874
:105740001DD107F4802018B1B0F5802F04D100E0FE
:1057500005E048F4806802E06FF00C001AE500BF35
:1057600007F4002018B1B0F5002F04D100E005E0E7
:1057700048F4007802E06FF00D000BE500BFA06870
:1057800000EBC00101EB0010A900B0FBF1F06421B7
:10579000B0FBF1F1A06800EBC00202EB0010AA0020
:1057A000B0FBF2F0A26802EBC20303EB0212AB0003
:1057B000B2FBF3F26423B2FBF3F202EBC20303EB9E
:1057C0000212A0EB8200322202EB00106422B0FB36
:1057D000F2FA61F31F1AA06800011FFA8AF1B0FB08
:1057E000F1F00009019064210198484305EB05118F
:1057F00001EB4101B0EB410F09D26421019848430C
:1058000005EB051101EB4511B0EB410F02D86FF02C
:105810000700BFE46068808920F4005061688881D7
:105820006168A1F808A00298216BC860206BC0F8DD
:105830001090206BC068062809D1E06830B1E2689A
:105840009188032310680222FBF78BFF17E0206B7F
:10585000C07A00F0080048B1E06880B1E268918841
:10586000032310680222FBF77CFF08E0E06830B1F8
:10587000E2689188002310681A46FBF772FF00BFA8
:10588000206BC068042802D006280BD100E000BFBE
:10589000206930B122699188002310681A46FBF70D
:1058A00060FF18E0206BC07A00F0100048B120695A
:1058B00080B122699188002310680122FBF751FF13
:1058C00008E0206930B122699188002310681A46E7
:1058D000FBF747FF00BF00BF6069D0B1206BC06815
:1058E000022802D006280BD100BF6269918801E02E
:1058F00000CA9A3B032310680222FBF732FF07E03D
:1059000062699188002310681A46FBF72AFF00BFDE
:1059100000BFA069A0B1B9F5803F02D0B9F5403F02
:1059200007D1A2699188032310680222FBF719FFAF
:1059300006E0A2699188002310681A46FBF711FF60
:10594000E069A0B1B9F5003F02D0B9F5403F07D1F9
:10595000E2699188002310680122FBF702FF06E04C
:10596000E2699188002310680122FBF7FAFE009893
:10597000616888816168A1F810806168A1F814B03D
:105980006068808940F4005061688881206BC07A2B
:1059900040F00400216BC872002011E40146086841
:1059A00070470CB50146019820F001000190086B8A
:1059B000006920B1086B0069B0F5803F0ED1C8695D
:1059C00060B1CB6998881A689368C34003F00103FB
:1059D00023B9019820F00100401C0190019820F0AB
:1059E00002000190019820F008000190019820F039
:1059F000040001900198009A60F30002009201985F
:105A00004208009862F341000090019882080098D3
:105A100062F3820000900198C208009862F3C3000C
:105A2000009001980209009862F31F1000900098FE
:105A30000CBD0146486B006970470CB50146486BC8
:105A400090F8210028B1019820F00100401C01903D
:105A500008E048680088012222EA9012019862F367
:105A600000000190086B4279019862F341000190B7
:105A7000086B8279019862F382000190086BC27909
:105A8000019862F3C3000190086B027A019862F3F7
:105A900004100190086B427A019862F3451001905E
:105AA000086B827A019862F3861001900198009A3F
:105AB00060F30002009201984208009862F34100EE
:105AC000009001988208009862F38200009001988B
:105AD000C208009862F3C300009001980209009880
